{
	"data": {
		"bytecode": {
			"linkReferences": {},
			"object": "608060405234801561000f575f80fd5b5061032c8061001d5f395ff3fe608060405234801561000f575f80fd5b5060043610610086575f3560e01c80636d5433e6116100595780636d5433e614610102578063df627ed914610132578063f3893f2714610150578063fc27de121461016e57610086565b8063253bfae91461008a578063336c96f8146100a857806341f563e3146100c65780635f0d90c6146100e4575b5f80fd5b61009261018c565b60405161009f9190610240565b60405180910390f35b6100b06101a1565b6040516100bd9190610240565b60405180910390f35b6100ce6101b3565b6040516100db9190610240565b60405180910390f35b6100ec6101c7565b6040516100f99190610240565b60405180910390f35b61011c60048036038101906101179190610287565b6101da565b6040516101299190610240565b60405180910390f35b61013a6101f8565b60405161014791906102dd565b60405180910390f35b610158610201565b6040516101659190610240565b60405180910390f35b610176610215565b6040516101839190610240565b60405180910390f35b5f600190506002191561019e57600290505b90565b5f600190505f6101b057600290505b90565b5f600290506002156101c457600190505b90565b5f600190505f156101d757600290505b90565b5f818310156101e7578190505b8183106101f2578290505b92915050565b5f600219905090565b5f600190505f191561021257600290505b90565b5f60019050600261022557600290505b90565b5f819050919050565b61023a81610228565b82525050565b5f6020820190506102535f830184610231565b92915050565b5f80fd5b61026681610228565b8114610270575f80fd5b50565b5f813590506102818161025d565b92915050565b5f806040838503121561029d5761029c610259565b5b5f6102aa85828601610273565b92505060206102bb85828601610273565b9150509250929050565b5f819050919050565b6102d7816102c5565b82525050565b5f6020820190506102f05f8301846102ce565b9291505056fea2646970667358221220b460ffd99f032f5c3dd597ef1e70f14c7751a22a68fc36bd968cd743c268ced364736f6c63430008140033",
			"opcodes": "PUSH1 0x80 PUSH1 0x40 MSTORE CALLVALUE DUP1 ISZERO PUSH2 0xF JUMPI PUSH0 DUP1 REVERT JUMPDEST POP PUSH2 0x32C DUP1 PUSH2 0x1D PUSH0 CODECOPY PUSH0 RETURN INVALID PUSH1 0x80 PUSH1 0x40 MSTORE CALLVALUE DUP1 ISZERO PUSH2 0xF JUMPI PUSH0 DUP1 REVERT JUMPDEST POP PUSH1 0x4 CALLDATASIZE LT PUSH2 0x86 JUMPI PUSH0 CALLDATALOAD PUSH1 0xE0 SHR DUP1 PUSH4 0x6D5433E6 GT PUSH2 0x59 JUMPI DUP1 PUSH4 0x6D5433E6 EQ PUSH2 0x102 JUMPI DUP1 PUSH4 0xDF627ED9 EQ PUSH2 0x132 JUMPI DUP1 PUSH4 0xF3893F27 EQ PUSH2 0x150 JUMPI DUP1 PUSH4 0xFC27DE12 EQ PUSH2 0x16E JUMPI PUSH2 0x86 JUMP JUMPDEST DUP1 PUSH4 0x253BFAE9 EQ PUSH2 0x8A JUMPI DUP1 PUSH4 0x336C96F8 EQ PUSH2 0xA8 JUMPI DUP1 PUSH4 0x41F563E3 EQ PUSH2 0xC6 JUMPI DUP1 PUSH4 0x5F0D90C6 EQ PUSH2 0xE4 JUMPI JUMPDEST PUSH0 DUP1 REVERT JUMPDEST PUSH2 0x92 PUSH2 0x18C JUMP JUMPDEST PUSH1 0x40 MLOAD PUSH2 0x9F SWAP2 SWAP1 PUSH2 0x240 JUMP JUMPDEST PUSH1 0x40 MLOAD DUP1 SWAP2 SUB SWAP1 RETURN JUMPDEST PUSH2 0xB0 PUSH2 0x1A1 JUMP JUMPDEST PUSH1 0x40 MLOAD PUSH2 0xBD SWAP2 SWAP1 PUSH2 0x240 JUMP JUMPDEST PUSH1 0x40 MLOAD DUP1 SWAP2 SUB SWAP1 RETURN JUMPDEST PUSH2 0xCE PUSH2 0x1B3 JUMP JUMPDEST PUSH1 0x40 MLOAD PUSH2 0xDB SWAP2 SWAP1 PUSH2 0x240 JUMP JUMPDEST PUSH1 0x40 MLOAD DUP1 SWAP2 SUB SWAP1 RETURN JUMPDEST PUSH2 0xEC PUSH2 0x1C7 JUMP JUMPDEST PUSH1 0x40 MLOAD PUSH2 0xF9 SWAP2 SWAP1 PUSH2 0x240 JUMP JUMPDEST PUSH1 0x40 MLOAD DUP1 SWAP2 SUB SWAP1 RETURN JUMPDEST PUSH2 0x11C PUSH1 0x4 DUP1 CALLDATASIZE SUB DUP2 ADD SWAP1 PUSH2 0x117 SWAP2 SWAP1 PUSH2 0x287 JUMP JUMPDEST PUSH2 0x1DA JUMP JUMPDEST PUSH1 0x40 MLOAD PUSH2 0x129 SWAP2 SWAP1 PUSH2 0x240 JUMP JUMPDEST PUSH1 0x40 MLOAD DUP1 SWAP2 SUB SWAP1 RETURN JUMPDEST PUSH2 0x13A PUSH2 0x1F8 JUMP JUMPDEST PUSH1 0x40 MLOAD PUSH2 0x147 SWAP2 SWAP1 PUSH2 0x2DD JUMP JUMPDEST PUSH1 0x40 MLOAD DUP1 SWAP2 SUB SWAP1 RETURN JUMPDEST PUSH2 0x158 PUSH2 0x201 JUMP JUMPDEST PUSH1 0x40 MLOAD PUSH2 0x165 SWAP2 SWAP1 PUSH2 0x240 JUMP JUMPDEST PUSH1 0x40 MLOAD DUP1 SWAP2 SUB SWAP1 RETURN JUMPDEST PUSH2 0x176 PUSH2 0x215 JUMP JUMPDEST PUSH1 0x40 MLOAD PUSH2 0x183 SWAP2 SWAP1 PUSH2 0x240 JUMP JUMPDEST PUSH1 0x40 MLOAD DUP1 SWAP2 SUB SWAP1 RETURN JUMPDEST PUSH0 PUSH1 0x1 SWAP1 POP PUSH1 0x2 NOT ISZERO PUSH2 0x19E JUMPI PUSH1 0x2 SWAP1 POP JUMPDEST SWAP1 JUMP JUMPDEST PUSH0 PUSH1 0x1 SWAP1 POP PUSH0 PUSH2 0x1B0 JUMPI PUSH1 0x2 SWAP1 POP JUMPDEST SWAP1 JUMP JUMPDEST PUSH0 PUSH1 0x2 SWAP1 POP PUSH1 0x2 ISZERO PUSH2 0x1C4 JUMPI PUSH1 0x1 SWAP1 POP JUMPDEST SWAP1 JUMP JUMPDEST PUSH0 PUSH1 0x1 SWAP1 POP PUSH0 ISZERO PUSH2 0x1D7 JUMPI PUSH1 0x2 SWAP1 POP JUMPDEST SWAP1 JUMP JUMPDEST PUSH0 DUP2 DUP4 LT ISZERO PUSH2 0x1E7 JUMPI DUP2 SWAP1 POP JUMPDEST DUP2 DUP4 LT PUSH2 0x1F2 JUMPI DUP3 SWAP1 POP JUMPDEST SWAP3 SWAP2 POP POP JUMP JUMPDEST PUSH0 PUSH1 0x2 NOT SWAP1 POP SWAP1 JUMP JUMPDEST PUSH0 PUSH1 0x1 SWAP1 POP PUSH0 NOT ISZERO PUSH2 0x212 JUMPI PUSH1 0x2 SWAP1 POP JUMPDEST SWAP1 JUMP JUMPDEST PUSH0 PUSH1 0x1 SWAP1 POP PUSH1 0x2 PUSH2 0x225 JUMPI PUSH1 0x2 SWAP1 POP JUMPDEST SWAP1 JUMP JUMPDEST PUSH0 DUP2 SWAP1 POP SWAP2 SWAP1 POP JUMP JUMPDEST PUSH2 0x23A DUP2 PUSH2 0x228 JUMP JUMPDEST DUP3 MSTORE POP POP JUMP JUMPDEST PUSH0 PUSH1 0x20 DUP3 ADD SWAP1 POP PUSH2 0x253 PUSH0 DUP4 ADD DUP5 PUSH2 0x231 JUMP JUMPDEST SWAP3 SWAP2 POP POP JUMP JUMPDEST PUSH0 DUP1 REVERT JUMPDEST PUSH2 0x266 DUP2 PUSH2 0x228 JUMP JUMPDEST DUP2 EQ PUSH2 0x270 JUMPI PUSH0 DUP1 REVERT JUMPDEST POP JUMP JUMPDEST PUSH0 DUP2 CALLDATALOAD SWAP1 POP PUSH2 0x281 DUP2 PUSH2 0x25D JUMP JUMPDEST SWAP3 SWAP2 POP POP JUMP JUMPDEST PUSH0 DUP1 PUSH1 0x40 DUP4 DUP6 SUB SLT ISZERO PUSH2 0x29D JUMPI PUSH2 0x29C PUSH2 0x259 JUMP JUMPDEST JUMPDEST PUSH0 PUSH2 0x2AA DUP6 DUP3 DUP7 ADD PUSH2 0x273 JUMP JUMPDEST SWAP3 POP POP PUSH1 0x20 PUSH2 0x2BB DUP6 DUP3 DUP7 ADD PUSH2 0x273 JUMP JUMPDEST SWAP2 POP POP SWAP3 POP SWAP3 SWAP1 POP JUMP JUMPDEST PUSH0 DUP2 SWAP1 POP SWAP2 SWAP1 POP JUMP JUMPDEST PUSH2 0x2D7 DUP2 PUSH2 0x2C5 JUMP JUMPDEST DUP3 MSTORE POP POP JUMP JUMPDEST PUSH0 PUSH1 0x20 DUP3 ADD SWAP1 POP PUSH2 0x2F0 PUSH0 DUP4 ADD DUP5 PUSH2 0x2CE JUMP JUMPDEST SWAP3 SWAP2 POP POP JUMP INVALID LOG2 PUSH5 0x6970667358 0x22 SLT KECCAK256 0xB4 PUSH1 0xFF 0xD9 SWAP16 SUB 0x2F 0x5C RETURNDATASIZE 0xD5 SWAP8 0xEF 0x1E PUSH17 0xF14C7751A22A68FC36BD968CD743C268CE 0xD3 PUSH5 0x736F6C6343 STOP ADDMOD EQ STOP CALLER "
		},
		"gasEstimates": {
			"creation": {
				"codeDepositCost": "162400",
				"executionCost": "206",
				"totalCost": "162606"
			},
			"external": {
				"bitFlip()": "357",
				"isFalsy()": "418",
				"isTruthy()": "405",
				"max(uint256,uint256)": "infinite",
				"negation()": "379",
				"safeNegation()": "415",
				"unsafe1NegationPart1()": "406",
				"unsafe2NegationPart()": "364"
			}
		},
		"methodIdentifiers": {
			"bitFlip()": "df627ed9",
			"isFalsy()": "5f0d90c6",
			"isTruthy()": "41f563e3",
			"max(uint256,uint256)": "6d5433e6",
			"negation()": "336c96f8",
			"safeNegation()": "fc27de12",
			"unsafe1NegationPart1()": "f3893f27",
			"unsafe2NegationPart()": "253bfae9"
		}
	},
	"abi": [
		{
			"inputs": [],
			"name": "bitFlip",
			"outputs": [
				{
					"internalType": "bytes32",
					"name": "result",
					"type": "bytes32"
				}
			],
			"stateMutability": "pure",
			"type": "function"
		},
		{
			"inputs": [],
			"name": "isFalsy",
			"outputs": [
				{
					"internalType": "uint256",
					"name": "result",
					"type": "uint256"
				}
			],
			"stateMutability": "pure",
			"type": "function"
		},
		{
			"inputs": [],
			"name": "isTruthy",
			"outputs": [
				{
					"internalType": "uint256",
					"name": "result",
					"type": "uint256"
				}
			],
			"stateMutability": "pure",
			"type": "function"
		},
		{
			"inputs": [
				{
					"internalType": "uint256",
					"name": "x",
					"type": "uint256"
				},
				{
					"internalType": "uint256",
					"name": "y",
					"type": "uint256"
				}
			],
			"name": "max",
			"outputs": [
				{
					"internalType": "uint256",
					"name": "maximum",
					"type": "uint256"
				}
			],
			"stateMutability": "pure",
			"type": "function"
		},
		{
			"inputs": [],
			"name": "negation",
			"outputs": [
				{
					"internalType": "uint256",
					"name": "result",
					"type": "uint256"
				}
			],
			"stateMutability": "pure",
			"type": "function"
		},
		{
			"inputs": [],
			"name": "safeNegation",
			"outputs": [
				{
					"internalType": "uint256",
					"name": "result",
					"type": "uint256"
				}
			],
			"stateMutability": "pure",
			"type": "function"
		},
		{
			"inputs": [],
			"name": "unsafe1NegationPart1",
			"outputs": [
				{
					"internalType": "uint256",
					"name": "result",
					"type": "uint256"
				}
			],
			"stateMutability": "pure",
			"type": "function"
		},
		{
			"inputs": [],
			"name": "unsafe2NegationPart",
			"outputs": [
				{
					"internalType": "uint256",
					"name": "result",
					"type": "uint256"
				}
			],
			"stateMutability": "pure",
			"type": "function"
		}
	]
}