{
	"data": {
		"bytecode": {
			"linkReferences": {},
			"object": "608060405234801561000f575f80fd5b506101d38061001d5f395ff3fe608060405234801561000f575f80fd5b5060043610610034575f3560e01c806322cddfc2146100385780634270349414610042575b5f80fd5b610040610072565b005b61005c6004803603810190610057919061013f565b6100d0565b6040516100699190610184565b60405180910390f35b61007c60026100d0565b610084575f80fd5b61008e60036100d0565b610096575f80fd5b6100a060046100d0565b156100a9575f80fd5b6100b3600f6100d0565b156100bc575f80fd5b6100c660156100d0565b6100ce575f80fd5b565b5f600190506001600283040160025b81811015610101578084066100f6575f9250610101565b6001810190506100df565b5050919050565b5f80fd5b5f819050919050565b61011e8161010c565b8114610128575f80fd5b50565b5f8135905061013981610115565b92915050565b5f6020828403121561015457610153610108565b5b5f6101618482850161012b565b91505092915050565b5f8115159050919050565b61017e8161016a565b82525050565b5f6020820190506101975f830184610175565b9291505056fea26469706673582212207308f3ade84cc86bafac51015fb25da152eb14b1b26bc550448d3462ed7eee1164736f6c63430008140033",
			"opcodes": "PUSH1 0x80 PUSH1 0x40 MSTORE CALLVALUE DUP1 ISZERO PUSH2 0xF JUMPI PUSH0 DUP1 REVERT JUMPDEST POP PUSH2 0x1D3 DUP1 PUSH2 0x1D PUSH0 CODECOPY PUSH0 RETURN INVALID PUSH1 0x80 PUSH1 0x40 MSTORE CALLVALUE DUP1 ISZERO PUSH2 0xF JUMPI PUSH0 DUP1 REVERT JUMPDEST POP PUSH1 0x4 CALLDATASIZE LT PUSH2 0x34 JUMPI PUSH0 CALLDATALOAD PUSH1 0xE0 SHR DUP1 PUSH4 0x22CDDFC2 EQ PUSH2 0x38 JUMPI DUP1 PUSH4 0x42703494 EQ PUSH2 0x42 JUMPI JUMPDEST PUSH0 DUP1 REVERT JUMPDEST PUSH2 0x40 PUSH2 0x72 JUMP JUMPDEST STOP JUMPDEST PUSH2 0x5C PUSH1 0x4 DUP1 CALLDATASIZE SUB DUP2 ADD SWAP1 PUSH2 0x57 SWAP2 SWAP1 PUSH2 0x13F JUMP JUMPDEST PUSH2 0xD0 JUMP JUMPDEST PUSH1 0x40 MLOAD PUSH2 0x69 SWAP2 SWAP1 PUSH2 0x184 JUMP JUMPDEST PUSH1 0x40 MLOAD DUP1 SWAP2 SUB SWAP1 RETURN JUMPDEST PUSH2 0x7C PUSH1 0x2 PUSH2 0xD0 JUMP JUMPDEST PUSH2 0x84 JUMPI PUSH0 DUP1 REVERT JUMPDEST PUSH2 0x8E PUSH1 0x3 PUSH2 0xD0 JUMP JUMPDEST PUSH2 0x96 JUMPI PUSH0 DUP1 REVERT JUMPDEST PUSH2 0xA0 PUSH1 0x4 PUSH2 0xD0 JUMP JUMPDEST ISZERO PUSH2 0xA9 JUMPI PUSH0 DUP1 REVERT JUMPDEST PUSH2 0xB3 PUSH1 0xF PUSH2 0xD0 JUMP JUMPDEST ISZERO PUSH2 0xBC JUMPI PUSH0 DUP1 REVERT JUMPDEST PUSH2 0xC6 PUSH1 0x15 PUSH2 0xD0 JUMP JUMPDEST PUSH2 0xCE JUMPI PUSH0 DUP1 REVERT JUMPDEST JUMP JUMPDEST PUSH0 PUSH1 0x1 SWAP1 POP PUSH1 0x1 PUSH1 0x2 DUP4 DIV ADD PUSH1 0x2 JUMPDEST DUP2 DUP2 LT ISZERO PUSH2 0x101 JUMPI DUP1 DUP5 MOD PUSH2 0xF6 JUMPI PUSH0 SWAP3 POP PUSH2 0x101 JUMP JUMPDEST PUSH1 0x1 DUP2 ADD SWAP1 POP PUSH2 0xDF JUMP JUMPDEST POP POP SWAP2 SWAP1 POP JUMP JUMPDEST PUSH0 DUP1 REVERT JUMPDEST PUSH0 DUP2 SWAP1 POP SWAP2 SWAP1 POP JUMP JUMPDEST PUSH2 0x11E DUP2 PUSH2 0x10C JUMP JUMPDEST DUP2 EQ PUSH2 0x128 JUMPI PUSH0 DUP1 REVERT JUMPDEST POP JUMP JUMPDEST PUSH0 DUP2 CALLDATALOAD SWAP1 POP PUSH2 0x139 DUP2 PUSH2 0x115 JUMP JUMPDEST SWAP3 SWAP2 POP POP JUMP JUMPDEST PUSH0 PUSH1 0x20 DUP3 DUP5 SUB SLT ISZERO PUSH2 0x154 JUMPI PUSH2 0x153 PUSH2 0x108 JUMP JUMPDEST JUMPDEST PUSH0 PUSH2 0x161 DUP5 DUP3 DUP6 ADD PUSH2 0x12B JUMP JUMPDEST SWAP2 POP POP SWAP3 SWAP2 POP POP JUMP JUMPDEST PUSH0 DUP2 ISZERO ISZERO SWAP1 POP SWAP2 SWAP1 POP JUMP JUMPDEST PUSH2 0x17E DUP2 PUSH2 0x16A JUMP JUMPDEST DUP3 MSTORE POP POP JUMP JUMPDEST PUSH0 PUSH1 0x20 DUP3 ADD SWAP1 POP PUSH2 0x197 PUSH0 DUP4 ADD DUP5 PUSH2 0x175 JUMP JUMPDEST SWAP3 SWAP2 POP POP JUMP INVALID LOG2 PUSH5 0x6970667358 0x22 SLT KECCAK256 PUSH20 0x8F3ADE84CC86BAFAC51015FB25DA152EB14B1B2 PUSH12 0xC550448D3462ED7EEE116473 PUSH16 0x6C634300081400330000000000000000 "
		},
		"gasEstimates": {
			"creation": {
				"codeDepositCost": "93400",
				"executionCost": "139",
				"totalCost": "93539"
			},
			"external": {
				"isPrime(uint256)": "infinite",
				"testPrime()": "infinite"
			}
		},
		"methodIdentifiers": {
			"isPrime(uint256)": "42703494",
			"testPrime()": "22cddfc2"
		}
	},
	"abi": [
		{
			"inputs": [
				{
					"internalType": "uint256",
					"name": "x",
					"type": "uint256"
				}
			],
			"name": "isPrime",
			"outputs": [
				{
					"internalType": "bool",
					"name": "p",
					"type": "bool"
				}
			],
			"stateMutability": "pure",
			"type": "function"
		},
		{
			"inputs": [],
			"name": "testPrime",
			"outputs": [],
			"stateMutability": "pure",
			"type": "function"
		}
	]
}