{
	"Introduction/02_Basic Operations.sol": {
		"IsPrime": {
			"abi": [
				{
					"inputs": [
						{
							"internalType": "uint256",
							"name": "x",
							"type": "uint256"
						}
					],
					"name": "isPrime",
					"outputs": [
						{
							"internalType": "bool",
							"name": "p",
							"type": "bool"
						}
					],
					"stateMutability": "pure",
					"type": "function"
				},
				{
					"inputs": [],
					"name": "testPrime",
					"outputs": [],
					"stateMutability": "pure",
					"type": "function"
				}
			],
			"devdoc": {
				"kind": "dev",
				"methods": {},
				"version": 1
			},
			"evm": {
				"assembly": "    /* \"Introduction/02_Basic Operations.sol\":58:1082  contract IsPrime{... */\n  mstore(0x40, 0x80)\n  callvalue\n  dup1\n  iszero\n  tag_1\n  jumpi\n  0x00\n  dup1\n  revert\ntag_1:\n  pop\n  dataSize(sub_0)\n  dup1\n  dataOffset(sub_0)\n  0x00\n  codecopy\n  0x00\n  return\nstop\n\nsub_0: assembly {\n        /* \"Introduction/02_Basic Operations.sol\":58:1082  contract IsPrime{... */\n      mstore(0x40, 0x80)\n      callvalue\n      dup1\n      iszero\n      tag_1\n      jumpi\n      0x00\n      dup1\n      revert\n    tag_1:\n      pop\n      jumpi(tag_2, lt(calldatasize, 0x04))\n      shr(0xe0, calldataload(0x00))\n      dup1\n      0x22cddfc2\n      eq\n      tag_3\n      jumpi\n      dup1\n      0x42703494\n      eq\n      tag_4\n      jumpi\n    tag_2:\n      0x00\n      dup1\n      revert\n        /* \"Introduction/02_Basic Operations.sol\":757:1080  function testPrime() external pure{... */\n    tag_3:\n      tag_5\n      tag_6\n      jump\t// in\n    tag_5:\n      stop\n        /* \"Introduction/02_Basic Operations.sol\":170:751  function isPrime(uint256 x)public pure returns(bool p){... */\n    tag_4:\n      tag_7\n      0x04\n      dup1\n      calldatasize\n      sub\n      dup2\n      add\n      swap1\n      tag_8\n      swap2\n      swap1\n      tag_9\n      jump\t// in\n    tag_8:\n      tag_10\n      jump\t// in\n    tag_7:\n      mload(0x40)\n      tag_11\n      swap2\n      swap1\n      tag_12\n      jump\t// in\n    tag_11:\n      mload(0x40)\n      dup1\n      swap2\n      sub\n      swap1\n      return\n        /* \"Introduction/02_Basic Operations.sol\":757:1080  function testPrime() external pure{... */\n    tag_6:\n        /* \"Introduction/02_Basic Operations.sol\":809:819  isPrime(2) */\n      tag_14\n        /* \"Introduction/02_Basic Operations.sol\":817:818  2 */\n      0x02\n        /* \"Introduction/02_Basic Operations.sol\":809:816  isPrime */\n      tag_10\n        /* \"Introduction/02_Basic Operations.sol\":809:819  isPrime(2) */\n      jump\t// in\n    tag_14:\n        /* \"Introduction/02_Basic Operations.sol\":801:820  require(isPrime(2)) */\n      tag_15\n      jumpi\n      0x00\n      dup1\n      revert\n    tag_15:\n        /* \"Introduction/02_Basic Operations.sol\":838:848  isPrime(3) */\n      tag_16\n        /* \"Introduction/02_Basic Operations.sol\":846:847  3 */\n      0x03\n        /* \"Introduction/02_Basic Operations.sol\":838:845  isPrime */\n      tag_10\n        /* \"Introduction/02_Basic Operations.sol\":838:848  isPrime(3) */\n      jump\t// in\n    tag_16:\n        /* \"Introduction/02_Basic Operations.sol\":830:849  require(isPrime(3)) */\n      tag_17\n      jumpi\n      0x00\n      dup1\n      revert\n    tag_17:\n        /* \"Introduction/02_Basic Operations.sol\":868:878  isPrime(4) */\n      tag_18\n        /* \"Introduction/02_Basic Operations.sol\":876:877  4 */\n      0x04\n        /* \"Introduction/02_Basic Operations.sol\":868:875  isPrime */\n      tag_10\n        /* \"Introduction/02_Basic Operations.sol\":868:878  isPrime(4) */\n      jump\t// in\n    tag_18:\n        /* \"Introduction/02_Basic Operations.sol\":867:878  !isPrime(4) */\n      iszero\n        /* \"Introduction/02_Basic Operations.sol\":859:879  require(!isPrime(4)) */\n      tag_19\n      jumpi\n      0x00\n      dup1\n      revert\n    tag_19:\n        /* \"Introduction/02_Basic Operations.sol\":989:1000  isPrime(15) */\n      tag_20\n        /* \"Introduction/02_Basic Operations.sol\":997:999  15 */\n      0x0f\n        /* \"Introduction/02_Basic Operations.sol\":989:996  isPrime */\n      tag_10\n        /* \"Introduction/02_Basic Operations.sol\":989:1000  isPrime(15) */\n      jump\t// in\n    tag_20:\n        /* \"Introduction/02_Basic Operations.sol\":988:1000  !isPrime(15) */\n      iszero\n        /* \"Introduction/02_Basic Operations.sol\":980:1001  require(!isPrime(15)) */\n      tag_21\n      jumpi\n      0x00\n      dup1\n      revert\n    tag_21:\n        /* \"Introduction/02_Basic Operations.sol\":1061:1072  isPrime(21) */\n      tag_22\n        /* \"Introduction/02_Basic Operations.sol\":1069:1071  21 */\n      0x15\n        /* \"Introduction/02_Basic Operations.sol\":1061:1068  isPrime */\n      tag_10\n        /* \"Introduction/02_Basic Operations.sol\":1061:1072  isPrime(21) */\n      jump\t// in\n    tag_22:\n        /* \"Introduction/02_Basic Operations.sol\":1053:1073  require(isPrime(21)) */\n      tag_23\n      jumpi\n      0x00\n      dup1\n      revert\n    tag_23:\n        /* \"Introduction/02_Basic Operations.sol\":757:1080  function testPrime() external pure{... */\n      jump\t// out\n        /* \"Introduction/02_Basic Operations.sol\":170:751  function isPrime(uint256 x)public pure returns(bool p){... */\n    tag_10:\n        /* \"Introduction/02_Basic Operations.sol\":217:223  bool p */\n      0x00\n        /* \"Introduction/02_Basic Operations.sol\":238:242  true */\n      0x01\n        /* \"Introduction/02_Basic Operations.sol\":234:242  p = true */\n      swap1\n      pop\n        /* \"Introduction/02_Basic Operations.sol\":361:362  1 */\n      0x01\n        /* \"Introduction/02_Basic Operations.sol\":358:359  2 */\n      0x02\n        /* \"Introduction/02_Basic Operations.sol\":356:357  x */\n      dup4\n        /* \"Introduction/02_Basic Operations.sol\":352:360  div(x,2) */\n      div\n        /* \"Introduction/02_Basic Operations.sol\":348:363  add(div(x,2),1) */\n      add\n        /* \"Introduction/02_Basic Operations.sol\":443:444  2 */\n      0x02\n        /* \"Introduction/02_Basic Operations.sol\":429:735  for {let i := 2} lt(i,halfX) {i := add(i,1)}{... */\n    tag_25:\n        /* \"Introduction/02_Basic Operations.sol\":451:456  halfX */\n      dup2\n        /* \"Introduction/02_Basic Operations.sol\":449:450  i */\n      dup2\n        /* \"Introduction/02_Basic Operations.sol\":446:457  lt(i,halfX) */\n      lt\n        /* \"Introduction/02_Basic Operations.sol\":429:735  for {let i := 2} lt(i,halfX) {i := add(i,1)}{... */\n      iszero\n      tag_27\n      jumpi\n        /* \"Introduction/02_Basic Operations.sol\":646:647  i */\n      dup1\n        /* \"Introduction/02_Basic Operations.sol\":644:645  x */\n      dup5\n        /* \"Introduction/02_Basic Operations.sol\":640:648  mod(x,i) */\n      mod\n        /* \"Introduction/02_Basic Operations.sol\":630:721  if iszero(mod(x,i)){... */\n      tag_28\n      jumpi\n        /* \"Introduction/02_Basic Operations.sol\":676:677  0 */\n      0x00\n        /* \"Introduction/02_Basic Operations.sol\":671:677  p := 0 */\n      swap3\n      pop\n        /* \"Introduction/02_Basic Operations.sol\":698:703  break */\n      jump(tag_27)\n        /* \"Introduction/02_Basic Operations.sol\":630:721  if iszero(mod(x,i)){... */\n    tag_28:\n        /* \"Introduction/02_Basic Operations.sol\":470:471  1 */\n      0x01\n        /* \"Introduction/02_Basic Operations.sol\":468:469  i */\n      dup2\n        /* \"Introduction/02_Basic Operations.sol\":464:472  add(i,1) */\n      add\n        /* \"Introduction/02_Basic Operations.sol\":459:472  i := add(i,1) */\n      swap1\n      pop\n        /* \"Introduction/02_Basic Operations.sol\":429:735  for {let i := 2} lt(i,halfX) {i := add(i,1)}{... */\n      jump(tag_25)\n    tag_27:\n        /* \"Introduction/02_Basic Operations.sol\":433:445  {let i := 2} */\n      pop\n        /* \"Introduction/02_Basic Operations.sol\":260:745  {... */\n      pop\n        /* \"Introduction/02_Basic Operations.sol\":170:751  function isPrime(uint256 x)public pure returns(bool p){... */\n      swap2\n      swap1\n      pop\n      jump\t// out\n        /* \"#utility.yul\":88:205   */\n    tag_30:\n        /* \"#utility.yul\":197:198   */\n      0x00\n        /* \"#utility.yul\":194:195   */\n      dup1\n        /* \"#utility.yul\":187:199   */\n      revert\n        /* \"#utility.yul\":334:411   */\n    tag_32:\n        /* \"#utility.yul\":371:378   */\n      0x00\n        /* \"#utility.yul\":400:405   */\n      dup2\n        /* \"#utility.yul\":389:405   */\n      swap1\n      pop\n        /* \"#utility.yul\":334:411   */\n      swap2\n      swap1\n      pop\n      jump\t// out\n        /* \"#utility.yul\":417:539   */\n    tag_33:\n        /* \"#utility.yul\":490:514   */\n      tag_43\n        /* \"#utility.yul\":508:513   */\n      dup2\n        /* \"#utility.yul\":490:514   */\n      tag_32\n      jump\t// in\n    tag_43:\n        /* \"#utility.yul\":483:488   */\n      dup2\n        /* \"#utility.yul\":480:515   */\n      eq\n        /* \"#utility.yul\":470:533   */\n      tag_44\n      jumpi\n        /* \"#utility.yul\":529:530   */\n      0x00\n        /* \"#utility.yul\":526:527   */\n      dup1\n        /* \"#utility.yul\":519:531   */\n      revert\n        /* \"#utility.yul\":470:533   */\n    tag_44:\n        /* \"#utility.yul\":417:539   */\n      pop\n      jump\t// out\n        /* \"#utility.yul\":545:684   */\n    tag_34:\n        /* \"#utility.yul\":591:596   */\n      0x00\n        /* \"#utility.yul\":629:635   */\n      dup2\n        /* \"#utility.yul\":616:636   */\n      calldataload\n        /* \"#utility.yul\":607:636   */\n      swap1\n      pop\n        /* \"#utility.yul\":645:678   */\n      tag_46\n        /* \"#utility.yul\":672:677   */\n      dup2\n        /* \"#utility.yul\":645:678   */\n      tag_33\n      jump\t// in\n    tag_46:\n        /* \"#utility.yul\":545:684   */\n      swap3\n      swap2\n      pop\n      pop\n      jump\t// out\n        /* \"#utility.yul\":690:1019   */\n    tag_9:\n        /* \"#utility.yul\":749:755   */\n      0x00\n        /* \"#utility.yul\":798:800   */\n      0x20\n        /* \"#utility.yul\":786:795   */\n      dup3\n        /* \"#utility.yul\":777:784   */\n      dup5\n        /* \"#utility.yul\":773:796   */\n      sub\n        /* \"#utility.yul\":769:801   */\n      slt\n        /* \"#utility.yul\":766:885   */\n      iszero\n      tag_48\n      jumpi\n        /* \"#utility.yul\":804:883   */\n      tag_49\n      tag_30\n      jump\t// in\n    tag_49:\n        /* \"#utility.yul\":766:885   */\n    tag_48:\n        /* \"#utility.yul\":924:925   */\n      0x00\n        /* \"#utility.yul\":949:1002   */\n      tag_50\n        /* \"#utility.yul\":994:1001   */\n      dup5\n        /* \"#utility.yul\":985:991   */\n      dup3\n        /* \"#utility.yul\":974:983   */\n      dup6\n        /* \"#utility.yul\":970:992   */\n      add\n        /* \"#utility.yul\":949:1002   */\n      tag_34\n      jump\t// in\n    tag_50:\n        /* \"#utility.yul\":939:1002   */\n      swap2\n      pop\n        /* \"#utility.yul\":895:1012   */\n      pop\n        /* \"#utility.yul\":690:1019   */\n      swap3\n      swap2\n      pop\n      pop\n      jump\t// out\n        /* \"#utility.yul\":1025:1115   */\n    tag_35:\n        /* \"#utility.yul\":1059:1066   */\n      0x00\n        /* \"#utility.yul\":1102:1107   */\n      dup2\n        /* \"#utility.yul\":1095:1108   */\n      iszero\n        /* \"#utility.yul\":1088:1109   */\n      iszero\n        /* \"#utility.yul\":1077:1109   */\n      swap1\n      pop\n        /* \"#utility.yul\":1025:1115   */\n      swap2\n      swap1\n      pop\n      jump\t// out\n        /* \"#utility.yul\":1121:1230   */\n    tag_36:\n        /* \"#utility.yul\":1202:1223   */\n      tag_53\n        /* \"#utility.yul\":1217:1222   */\n      dup2\n        /* \"#utility.yul\":1202:1223   */\n      tag_35\n      jump\t// in\n    tag_53:\n        /* \"#utility.yul\":1197:1200   */\n      dup3\n        /* \"#utility.yul\":1190:1224   */\n      mstore\n        /* \"#utility.yul\":1121:1230   */\n      pop\n      pop\n      jump\t// out\n        /* \"#utility.yul\":1236:1446   */\n    tag_12:\n        /* \"#utility.yul\":1323:1327   */\n      0x00\n        /* \"#utility.yul\":1361:1363   */\n      0x20\n        /* \"#utility.yul\":1350:1359   */\n      dup3\n        /* \"#utility.yul\":1346:1364   */\n      add\n        /* \"#utility.yul\":1338:1364   */\n      swap1\n      pop\n        /* \"#utility.yul\":1374:1439   */\n      tag_55\n        /* \"#utility.yul\":1436:1437   */\n      0x00\n        /* \"#utility.yul\":1425:1434   */\n      dup4\n        /* \"#utility.yul\":1421:1438   */\n      add\n        /* \"#utility.yul\":1412:1418   */\n      dup5\n        /* \"#utility.yul\":1374:1439   */\n      tag_36\n      jump\t// in\n    tag_55:\n        /* \"#utility.yul\":1236:1446   */\n      swap3\n      swap2\n      pop\n      pop\n      jump\t// out\n\n    auxdata: 0xa26469706673582212207308f3ade84cc86bafac51015fb25da152eb14b1b26bc550448d3462ed7eee1164736f6c63430008140033\n}\n",
				"bytecode": {
					"linkReferences": {},
					"object": "608060405234801561000f575f80fd5b506101d38061001d5f395ff3fe608060405234801561000f575f80fd5b5060043610610034575f3560e01c806322cddfc2146100385780634270349414610042575b5f80fd5b610040610072565b005b61005c6004803603810190610057919061013f565b6100d0565b6040516100699190610184565b60405180910390f35b61007c60026100d0565b610084575f80fd5b61008e60036100d0565b610096575f80fd5b6100a060046100d0565b156100a9575f80fd5b6100b3600f6100d0565b156100bc575f80fd5b6100c660156100d0565b6100ce575f80fd5b565b5f600190506001600283040160025b81811015610101578084066100f6575f9250610101565b6001810190506100df565b5050919050565b5f80fd5b5f819050919050565b61011e8161010c565b8114610128575f80fd5b50565b5f8135905061013981610115565b92915050565b5f6020828403121561015457610153610108565b5b5f6101618482850161012b565b91505092915050565b5f8115159050919050565b61017e8161016a565b82525050565b5f6020820190506101975f830184610175565b9291505056fea26469706673582212207308f3ade84cc86bafac51015fb25da152eb14b1b26bc550448d3462ed7eee1164736f6c63430008140033",
					"opcodes": "PUSH1 0x80 PUSH1 0x40 MSTORE CALLVALUE DUP1 ISZERO PUSH2 0xF JUMPI PUSH0 DUP1 REVERT JUMPDEST POP PUSH2 0x1D3 DUP1 PUSH2 0x1D PUSH0 CODECOPY PUSH0 RETURN INVALID PUSH1 0x80 PUSH1 0x40 MSTORE CALLVALUE DUP1 ISZERO PUSH2 0xF JUMPI PUSH0 DUP1 REVERT JUMPDEST POP PUSH1 0x4 CALLDATASIZE LT PUSH2 0x34 JUMPI PUSH0 CALLDATALOAD PUSH1 0xE0 SHR DUP1 PUSH4 0x22CDDFC2 EQ PUSH2 0x38 JUMPI DUP1 PUSH4 0x42703494 EQ PUSH2 0x42 JUMPI JUMPDEST PUSH0 DUP1 REVERT JUMPDEST PUSH2 0x40 PUSH2 0x72 JUMP JUMPDEST STOP JUMPDEST PUSH2 0x5C PUSH1 0x4 DUP1 CALLDATASIZE SUB DUP2 ADD SWAP1 PUSH2 0x57 SWAP2 SWAP1 PUSH2 0x13F JUMP JUMPDEST PUSH2 0xD0 JUMP JUMPDEST PUSH1 0x40 MLOAD PUSH2 0x69 SWAP2 SWAP1 PUSH2 0x184 JUMP JUMPDEST PUSH1 0x40 MLOAD DUP1 SWAP2 SUB SWAP1 RETURN JUMPDEST PUSH2 0x7C PUSH1 0x2 PUSH2 0xD0 JUMP JUMPDEST PUSH2 0x84 JUMPI PUSH0 DUP1 REVERT JUMPDEST PUSH2 0x8E PUSH1 0x3 PUSH2 0xD0 JUMP JUMPDEST PUSH2 0x96 JUMPI PUSH0 DUP1 REVERT JUMPDEST PUSH2 0xA0 PUSH1 0x4 PUSH2 0xD0 JUMP JUMPDEST ISZERO PUSH2 0xA9 JUMPI PUSH0 DUP1 REVERT JUMPDEST PUSH2 0xB3 PUSH1 0xF PUSH2 0xD0 JUMP JUMPDEST ISZERO PUSH2 0xBC JUMPI PUSH0 DUP1 REVERT JUMPDEST PUSH2 0xC6 PUSH1 0x15 PUSH2 0xD0 JUMP JUMPDEST PUSH2 0xCE JUMPI PUSH0 DUP1 REVERT JUMPDEST JUMP JUMPDEST PUSH0 PUSH1 0x1 SWAP1 POP PUSH1 0x1 PUSH1 0x2 DUP4 DIV ADD PUSH1 0x2 JUMPDEST DUP2 DUP2 LT ISZERO PUSH2 0x101 JUMPI DUP1 DUP5 MOD PUSH2 0xF6 JUMPI PUSH0 SWAP3 POP PUSH2 0x101 JUMP JUMPDEST PUSH1 0x1 DUP2 ADD SWAP1 POP PUSH2 0xDF JUMP JUMPDEST POP POP SWAP2 SWAP1 POP JUMP JUMPDEST PUSH0 DUP1 REVERT JUMPDEST PUSH0 DUP2 SWAP1 POP SWAP2 SWAP1 POP JUMP JUMPDEST PUSH2 0x11E DUP2 PUSH2 0x10C JUMP JUMPDEST DUP2 EQ PUSH2 0x128 JUMPI PUSH0 DUP1 REVERT JUMPDEST POP JUMP JUMPDEST PUSH0 DUP2 CALLDATALOAD SWAP1 POP PUSH2 0x139 DUP2 PUSH2 0x115 JUMP JUMPDEST SWAP3 SWAP2 POP POP JUMP JUMPDEST PUSH0 PUSH1 0x20 DUP3 DUP5 SUB SLT ISZERO PUSH2 0x154 JUMPI PUSH2 0x153 PUSH2 0x108 JUMP JUMPDEST JUMPDEST PUSH0 PUSH2 0x161 DUP5 DUP3 DUP6 ADD PUSH2 0x12B JUMP JUMPDEST SWAP2 POP POP SWAP3 SWAP2 POP POP JUMP JUMPDEST PUSH0 DUP2 ISZERO ISZERO SWAP1 POP SWAP2 SWAP1 POP JUMP JUMPDEST PUSH2 0x17E DUP2 PUSH2 0x16A JUMP JUMPDEST DUP3 MSTORE POP POP JUMP JUMPDEST PUSH0 PUSH1 0x20 DUP3 ADD SWAP1 POP PUSH2 0x197 PUSH0 DUP4 ADD DUP5 PUSH2 0x175 JUMP JUMPDEST SWAP3 SWAP2 POP POP JUMP INVALID LOG2 PUSH5 0x6970667358 0x22 SLT KECCAK256 PUSH20 0x8F3ADE84CC86BAFAC51015FB25DA152EB14B1B2 PUSH12 0xC550448D3462ED7EEE116473 PUSH16 0x6C634300081400330000000000000000 "
				},
				"gasEstimates": {
					"creation": {
						"codeDepositCost": "93400",
						"executionCost": "139",
						"totalCost": "93539"
					},
					"external": {
						"isPrime(uint256)": "infinite",
						"testPrime()": "infinite"
					}
				},
				"methodIdentifiers": {
					"isPrime(uint256)": "42703494",
					"testPrime()": "22cddfc2"
				}
			},
			"storageLayout": {
				"storage": [],
				"types": null
			},
			"userdoc": {
				"kind": "user",
				"methods": {},
				"version": 1
			}
		}
	}
}